{
 "cells": [
  {
   "cell_type": "markdown",
   "id": "a5197a38-f3bb-496f-a253-9a42d0a20f81",
   "metadata": {},
   "source": [
    "# Interacting With Contracts"
   ]
  },
  {
   "cell_type": "code",
   "execution_count": 1,
   "id": "3884e148-e714-4e00-8569-55aa09ee679b",
   "metadata": {},
   "outputs": [],
   "source": [
    "from web3 import Web3"
   ]
  },
  {
   "cell_type": "code",
   "execution_count": 15,
   "id": "e1f415d9-b981-4d21-b737-d224563f0e15",
   "metadata": {},
   "outputs": [
    {
     "name": "stdout",
     "output_type": "stream",
     "text": [
      "connected: True\n",
      "address: 0xf552caDA75788725Fed5e828727D87df57920bf0\n"
     ]
    }
   ],
   "source": [
    "%run ConectAndAssignAccount.py"
   ]
  },
  {
   "cell_type": "markdown",
   "id": "4566d5fd-a2f8-4763-8add-82a612cd9b2b",
   "metadata": {},
   "source": [
    "# Get contract's ABI"
   ]
  },
  {
   "cell_type": "code",
   "execution_count": 9,
   "id": "0a7c2c13-ea62-4d5a-9cdd-555614545e37",
   "metadata": {},
   "outputs": [],
   "source": [
    "contract_address = Web3.toChecksumAddress(\"0x57f1887a8bf19b14fc0df6fd9b2acc9af147ea85\")\n",
    "\n",
    "# get abi from etherscan\n",
    "contract_abi = '[{\"inputs\":[{\"internalType\":\"contract ENS\",\"name\":\"_ens\",\"type\":\"address\"},{\"internalType\":\"bytes32\",\"name\":\"_baseNode\",\"type\":\"bytes32\"}],\"payable\":false,\"stateMutability\":\"nonpayable\",\"type\":\"constructor\"},{\"anonymous\":false,\"inputs\":[{\"indexed\":true,\"internalType\":\"address\",\"name\":\"owner\",\"type\":\"address\"},{\"indexed\":true,\"internalType\":\"address\",\"name\":\"approved\",\"type\":\"address\"},{\"indexed\":true,\"internalType\":\"uint256\",\"name\":\"tokenId\",\"type\":\"uint256\"}],\"name\":\"Approval\",\"type\":\"event\"},{\"anonymous\":false,\"inputs\":[{\"indexed\":true,\"internalType\":\"address\",\"name\":\"owner\",\"type\":\"address\"},{\"indexed\":true,\"internalType\":\"address\",\"name\":\"operator\",\"type\":\"address\"},{\"indexed\":false,\"internalType\":\"bool\",\"name\":\"approved\",\"type\":\"bool\"}],\"name\":\"ApprovalForAll\",\"type\":\"event\"},{\"anonymous\":false,\"inputs\":[{\"indexed\":true,\"internalType\":\"address\",\"name\":\"controller\",\"type\":\"address\"}],\"name\":\"ControllerAdded\",\"type\":\"event\"},{\"anonymous\":false,\"inputs\":[{\"indexed\":true,\"internalType\":\"address\",\"name\":\"controller\",\"type\":\"address\"}],\"name\":\"ControllerRemoved\",\"type\":\"event\"},{\"anonymous\":false,\"inputs\":[{\"indexed\":true,\"internalType\":\"uint256\",\"name\":\"id\",\"type\":\"uint256\"},{\"indexed\":true,\"internalType\":\"address\",\"name\":\"owner\",\"type\":\"address\"},{\"indexed\":false,\"internalType\":\"uint256\",\"name\":\"expires\",\"type\":\"uint256\"}],\"name\":\"NameMigrated\",\"type\":\"event\"},{\"anonymous\":false,\"inputs\":[{\"indexed\":true,\"internalType\":\"uint256\",\"name\":\"id\",\"type\":\"uint256\"},{\"indexed\":true,\"internalType\":\"address\",\"name\":\"owner\",\"type\":\"address\"},{\"indexed\":false,\"internalType\":\"uint256\",\"name\":\"expires\",\"type\":\"uint256\"}],\"name\":\"NameRegistered\",\"type\":\"event\"},{\"anonymous\":false,\"inputs\":[{\"indexed\":true,\"internalType\":\"uint256\",\"name\":\"id\",\"type\":\"uint256\"},{\"indexed\":false,\"internalType\":\"uint256\",\"name\":\"expires\",\"type\":\"uint256\"}],\"name\":\"NameRenewed\",\"type\":\"event\"},{\"anonymous\":false,\"inputs\":[{\"indexed\":true,\"internalType\":\"address\",\"name\":\"previousOwner\",\"type\":\"address\"},{\"indexed\":true,\"internalType\":\"address\",\"name\":\"newOwner\",\"type\":\"address\"}],\"name\":\"OwnershipTransferred\",\"type\":\"event\"},{\"anonymous\":false,\"inputs\":[{\"indexed\":true,\"internalType\":\"address\",\"name\":\"from\",\"type\":\"address\"},{\"indexed\":true,\"internalType\":\"address\",\"name\":\"to\",\"type\":\"address\"},{\"indexed\":true,\"internalType\":\"uint256\",\"name\":\"tokenId\",\"type\":\"uint256\"}],\"name\":\"Transfer\",\"type\":\"event\"},{\"constant\":true,\"inputs\":[],\"name\":\"GRACE_PERIOD\",\"outputs\":[{\"internalType\":\"uint256\",\"name\":\"\",\"type\":\"uint256\"}],\"payable\":false,\"stateMutability\":\"view\",\"type\":\"function\"},{\"constant\":false,\"inputs\":[{\"internalType\":\"address\",\"name\":\"controller\",\"type\":\"address\"}],\"name\":\"addController\",\"outputs\":[],\"payable\":false,\"stateMutability\":\"nonpayable\",\"type\":\"function\"},{\"constant\":false,\"inputs\":[{\"internalType\":\"address\",\"name\":\"to\",\"type\":\"address\"},{\"internalType\":\"uint256\",\"name\":\"tokenId\",\"type\":\"uint256\"}],\"name\":\"approve\",\"outputs\":[],\"payable\":false,\"stateMutability\":\"nonpayable\",\"type\":\"function\"},{\"constant\":true,\"inputs\":[{\"internalType\":\"uint256\",\"name\":\"id\",\"type\":\"uint256\"}],\"name\":\"available\",\"outputs\":[{\"internalType\":\"bool\",\"name\":\"\",\"type\":\"bool\"}],\"payable\":false,\"stateMutability\":\"view\",\"type\":\"function\"},{\"constant\":true,\"inputs\":[{\"internalType\":\"address\",\"name\":\"owner\",\"type\":\"address\"}],\"name\":\"balanceOf\",\"outputs\":[{\"internalType\":\"uint256\",\"name\":\"\",\"type\":\"uint256\"}],\"payable\":false,\"stateMutability\":\"view\",\"type\":\"function\"},{\"constant\":true,\"inputs\":[],\"name\":\"baseNode\",\"outputs\":[{\"internalType\":\"bytes32\",\"name\":\"\",\"type\":\"bytes32\"}],\"payable\":false,\"stateMutability\":\"view\",\"type\":\"function\"},{\"constant\":true,\"inputs\":[{\"internalType\":\"address\",\"name\":\"\",\"type\":\"address\"}],\"name\":\"controllers\",\"outputs\":[{\"internalType\":\"bool\",\"name\":\"\",\"type\":\"bool\"}],\"payable\":false,\"stateMutability\":\"view\",\"type\":\"function\"},{\"constant\":true,\"inputs\":[],\"name\":\"ens\",\"outputs\":[{\"internalType\":\"contract ENS\",\"name\":\"\",\"type\":\"address\"}],\"payable\":false,\"stateMutability\":\"view\",\"type\":\"function\"},{\"constant\":true,\"inputs\":[{\"internalType\":\"uint256\",\"name\":\"tokenId\",\"type\":\"uint256\"}],\"name\":\"getApproved\",\"outputs\":[{\"internalType\":\"address\",\"name\":\"\",\"type\":\"address\"}],\"payable\":false,\"stateMutability\":\"view\",\"type\":\"function\"},{\"constant\":true,\"inputs\":[{\"internalType\":\"address\",\"name\":\"owner\",\"type\":\"address\"},{\"internalType\":\"address\",\"name\":\"operator\",\"type\":\"address\"}],\"name\":\"isApprovedForAll\",\"outputs\":[{\"internalType\":\"bool\",\"name\":\"\",\"type\":\"bool\"}],\"payable\":false,\"stateMutability\":\"view\",\"type\":\"function\"},{\"constant\":true,\"inputs\":[],\"name\":\"isOwner\",\"outputs\":[{\"internalType\":\"bool\",\"name\":\"\",\"type\":\"bool\"}],\"payable\":false,\"stateMutability\":\"view\",\"type\":\"function\"},{\"constant\":true,\"inputs\":[{\"internalType\":\"uint256\",\"name\":\"id\",\"type\":\"uint256\"}],\"name\":\"nameExpires\",\"outputs\":[{\"internalType\":\"uint256\",\"name\":\"\",\"type\":\"uint256\"}],\"payable\":false,\"stateMutability\":\"view\",\"type\":\"function\"},{\"constant\":true,\"inputs\":[],\"name\":\"owner\",\"outputs\":[{\"internalType\":\"address\",\"name\":\"\",\"type\":\"address\"}],\"payable\":false,\"stateMutability\":\"view\",\"type\":\"function\"},{\"constant\":true,\"inputs\":[{\"internalType\":\"uint256\",\"name\":\"tokenId\",\"type\":\"uint256\"}],\"name\":\"ownerOf\",\"outputs\":[{\"internalType\":\"address\",\"name\":\"\",\"type\":\"address\"}],\"payable\":false,\"stateMutability\":\"view\",\"type\":\"function\"},{\"constant\":false,\"inputs\":[{\"internalType\":\"uint256\",\"name\":\"id\",\"type\":\"uint256\"},{\"internalType\":\"address\",\"name\":\"owner\",\"type\":\"address\"}],\"name\":\"reclaim\",\"outputs\":[],\"payable\":false,\"stateMutability\":\"nonpayable\",\"type\":\"function\"},{\"constant\":false,\"inputs\":[{\"internalType\":\"uint256\",\"name\":\"id\",\"type\":\"uint256\"},{\"internalType\":\"address\",\"name\":\"owner\",\"type\":\"address\"},{\"internalType\":\"uint256\",\"name\":\"duration\",\"type\":\"uint256\"}],\"name\":\"register\",\"outputs\":[{\"internalType\":\"uint256\",\"name\":\"\",\"type\":\"uint256\"}],\"payable\":false,\"stateMutability\":\"nonpayable\",\"type\":\"function\"},{\"constant\":false,\"inputs\":[{\"internalType\":\"uint256\",\"name\":\"id\",\"type\":\"uint256\"},{\"internalType\":\"address\",\"name\":\"owner\",\"type\":\"address\"},{\"internalType\":\"uint256\",\"name\":\"duration\",\"type\":\"uint256\"}],\"name\":\"registerOnly\",\"outputs\":[{\"internalType\":\"uint256\",\"name\":\"\",\"type\":\"uint256\"}],\"payable\":false,\"stateMutability\":\"nonpayable\",\"type\":\"function\"},{\"constant\":false,\"inputs\":[{\"internalType\":\"address\",\"name\":\"controller\",\"type\":\"address\"}],\"name\":\"removeController\",\"outputs\":[],\"payable\":false,\"stateMutability\":\"nonpayable\",\"type\":\"function\"},{\"constant\":false,\"inputs\":[{\"internalType\":\"uint256\",\"name\":\"id\",\"type\":\"uint256\"},{\"internalType\":\"uint256\",\"name\":\"duration\",\"type\":\"uint256\"}],\"name\":\"renew\",\"outputs\":[{\"internalType\":\"uint256\",\"name\":\"\",\"type\":\"uint256\"}],\"payable\":false,\"stateMutability\":\"nonpayable\",\"type\":\"function\"},{\"constant\":false,\"inputs\":[],\"name\":\"renounceOwnership\",\"outputs\":[],\"payable\":false,\"stateMutability\":\"nonpayable\",\"type\":\"function\"},{\"constant\":false,\"inputs\":[{\"internalType\":\"address\",\"name\":\"from\",\"type\":\"address\"},{\"internalType\":\"address\",\"name\":\"to\",\"type\":\"address\"},{\"internalType\":\"uint256\",\"name\":\"tokenId\",\"type\":\"uint256\"}],\"name\":\"safeTransferFrom\",\"outputs\":[],\"payable\":false,\"stateMutability\":\"nonpayable\",\"type\":\"function\"},{\"constant\":false,\"inputs\":[{\"internalType\":\"address\",\"name\":\"from\",\"type\":\"address\"},{\"internalType\":\"address\",\"name\":\"to\",\"type\":\"address\"},{\"internalType\":\"uint256\",\"name\":\"tokenId\",\"type\":\"uint256\"},{\"internalType\":\"bytes\",\"name\":\"_data\",\"type\":\"bytes\"}],\"name\":\"safeTransferFrom\",\"outputs\":[],\"payable\":false,\"stateMutability\":\"nonpayable\",\"type\":\"function\"},{\"constant\":false,\"inputs\":[{\"internalType\":\"address\",\"name\":\"to\",\"type\":\"address\"},{\"internalType\":\"bool\",\"name\":\"approved\",\"type\":\"bool\"}],\"name\":\"setApprovalForAll\",\"outputs\":[],\"payable\":false,\"stateMutability\":\"nonpayable\",\"type\":\"function\"},{\"constant\":false,\"inputs\":[{\"internalType\":\"address\",\"name\":\"resolver\",\"type\":\"address\"}],\"name\":\"setResolver\",\"outputs\":[],\"payable\":false,\"stateMutability\":\"nonpayable\",\"type\":\"function\"},{\"constant\":true,\"inputs\":[{\"internalType\":\"bytes4\",\"name\":\"interfaceID\",\"type\":\"bytes4\"}],\"name\":\"supportsInterface\",\"outputs\":[{\"internalType\":\"bool\",\"name\":\"\",\"type\":\"bool\"}],\"payable\":false,\"stateMutability\":\"view\",\"type\":\"function\"},{\"constant\":false,\"inputs\":[{\"internalType\":\"address\",\"name\":\"from\",\"type\":\"address\"},{\"internalType\":\"address\",\"name\":\"to\",\"type\":\"address\"},{\"internalType\":\"uint256\",\"name\":\"tokenId\",\"type\":\"uint256\"}],\"name\":\"transferFrom\",\"outputs\":[],\"payable\":false,\"stateMutability\":\"nonpayable\",\"type\":\"function\"},{\"constant\":false,\"inputs\":[{\"internalType\":\"address\",\"name\":\"newOwner\",\"type\":\"address\"}],\"name\":\"transferOwnership\",\"outputs\":[],\"payable\":false,\"stateMutability\":\"nonpayable\",\"type\":\"function\"}]'\n",
    "\n",
    "# construct contract\n",
    "contract = w3.eth.contract(address = contract_address, abi = contract_abi)"
   ]
  },
  {
   "cell_type": "code",
   "execution_count": 10,
   "id": "23d10192-c8be-44d9-82eb-77ef177d3e11",
   "metadata": {},
   "outputs": [
    {
     "data": {
      "text/plain": [
       "[<Function GRACE_PERIOD()>,\n",
       " <Function addController(address)>,\n",
       " <Function approve(address,uint256)>,\n",
       " <Function available(uint256)>,\n",
       " <Function balanceOf(address)>,\n",
       " <Function baseNode()>,\n",
       " <Function controllers(address)>,\n",
       " <Function ens()>,\n",
       " <Function getApproved(uint256)>,\n",
       " <Function isApprovedForAll(address,address)>,\n",
       " <Function isOwner()>,\n",
       " <Function nameExpires(uint256)>,\n",
       " <Function owner()>,\n",
       " <Function ownerOf(uint256)>,\n",
       " <Function reclaim(uint256,address)>,\n",
       " <Function register(uint256,address,uint256)>,\n",
       " <Function registerOnly(uint256,address,uint256)>,\n",
       " <Function removeController(address)>,\n",
       " <Function renew(uint256,uint256)>,\n",
       " <Function renounceOwnership()>,\n",
       " <Function safeTransferFrom(address,address,uint256)>,\n",
       " <Function safeTransferFrom(address,address,uint256,bytes)>,\n",
       " <Function setApprovalForAll(address,bool)>,\n",
       " <Function setResolver(address)>,\n",
       " <Function supportsInterface(bytes4)>,\n",
       " <Function transferFrom(address,address,uint256)>,\n",
       " <Function transferOwnership(address)>]"
      ]
     },
     "execution_count": 10,
     "metadata": {},
     "output_type": "execute_result"
    }
   ],
   "source": [
    "contract.all_functions()"
   ]
  },
  {
   "cell_type": "code",
   "execution_count": 23,
   "id": "5da14ff2-4e5c-419b-b8c4-f744b0ef1336",
   "metadata": {},
   "outputs": [
    {
     "data": {
      "text/plain": [
       "<Function owner() bound to ()>"
      ]
     },
     "execution_count": 23,
     "metadata": {},
     "output_type": "execute_result"
    }
   ],
   "source": [
    "contract.functions.owner()"
   ]
  },
  {
   "cell_type": "code",
   "execution_count": 3,
   "id": "3f45f750-a469-44fe-9e38-1d8a634c0a9e",
   "metadata": {},
   "outputs": [],
   "source": [
    "contract_address = Web3.toChecksumAddress(\"0x96452AD206ba25551D38d8081dAaE16CE4e30536\")\n",
    "\n",
    "# get abi from etherscan\n",
    "contract_abi = '[{\"inputs\":[{\"internalType\":\"uint256\",\"name\":\"initialSupply\",\"type\":\"uint256\"}],\"stateMutability\":\"nonpayable\",\"type\":\"constructor\"},{\"anonymous\":false,\"inputs\":[{\"indexed\":true,\"internalType\":\"address\",\"name\":\"owner\",\"type\":\"address\"},{\"indexed\":true,\"internalType\":\"address\",\"name\":\"spender\",\"type\":\"address\"},{\"indexed\":false,\"internalType\":\"uint256\",\"name\":\"value\",\"type\":\"uint256\"}],\"name\":\"Approval\",\"type\":\"event\"},{\"anonymous\":false,\"inputs\":[{\"indexed\":true,\"internalType\":\"bytes32\",\"name\":\"role\",\"type\":\"bytes32\"},{\"indexed\":true,\"internalType\":\"bytes32\",\"name\":\"previousAdminRole\",\"type\":\"bytes32\"},{\"indexed\":true,\"internalType\":\"bytes32\",\"name\":\"newAdminRole\",\"type\":\"bytes32\"}],\"name\":\"RoleAdminChanged\",\"type\":\"event\"},{\"anonymous\":false,\"inputs\":[{\"indexed\":true,\"internalType\":\"bytes32\",\"name\":\"role\",\"type\":\"bytes32\"},{\"indexed\":true,\"internalType\":\"address\",\"name\":\"account\",\"type\":\"address\"},{\"indexed\":true,\"internalType\":\"address\",\"name\":\"sender\",\"type\":\"address\"}],\"name\":\"RoleGranted\",\"type\":\"event\"},{\"anonymous\":false,\"inputs\":[{\"indexed\":true,\"internalType\":\"bytes32\",\"name\":\"role\",\"type\":\"bytes32\"},{\"indexed\":true,\"internalType\":\"address\",\"name\":\"account\",\"type\":\"address\"},{\"indexed\":true,\"internalType\":\"address\",\"name\":\"sender\",\"type\":\"address\"}],\"name\":\"RoleRevoked\",\"type\":\"event\"},{\"anonymous\":false,\"inputs\":[{\"indexed\":true,\"internalType\":\"address\",\"name\":\"from\",\"type\":\"address\"},{\"indexed\":true,\"internalType\":\"address\",\"name\":\"to\",\"type\":\"address\"},{\"indexed\":false,\"internalType\":\"uint256\",\"name\":\"value\",\"type\":\"uint256\"}],\"name\":\"Transfer\",\"type\":\"event\"},{\"inputs\":[],\"name\":\"DEFAULT_ADMIN_ROLE\",\"outputs\":[{\"internalType\":\"bytes32\",\"name\":\"\",\"type\":\"bytes32\"}],\"stateMutability\":\"view\",\"type\":\"function\"},{\"inputs\":[],\"name\":\"MINTER_ROLE\",\"outputs\":[{\"internalType\":\"bytes32\",\"name\":\"\",\"type\":\"bytes32\"}],\"stateMutability\":\"view\",\"type\":\"function\"},{\"inputs\":[{\"internalType\":\"address\",\"name\":\"owner\",\"type\":\"address\"},{\"internalType\":\"address\",\"name\":\"spender\",\"type\":\"address\"}],\"name\":\"allowance\",\"outputs\":[{\"internalType\":\"uint256\",\"name\":\"\",\"type\":\"uint256\"}],\"stateMutability\":\"view\",\"type\":\"function\"},{\"inputs\":[{\"internalType\":\"address\",\"name\":\"spender\",\"type\":\"address\"},{\"internalType\":\"uint256\",\"name\":\"amount\",\"type\":\"uint256\"}],\"name\":\"approve\",\"outputs\":[{\"internalType\":\"bool\",\"name\":\"\",\"type\":\"bool\"}],\"stateMutability\":\"nonpayable\",\"type\":\"function\"},{\"inputs\":[{\"internalType\":\"address\",\"name\":\"account\",\"type\":\"address\"}],\"name\":\"balanceOf\",\"outputs\":[{\"internalType\":\"uint256\",\"name\":\"\",\"type\":\"uint256\"}],\"stateMutability\":\"view\",\"type\":\"function\"},{\"inputs\":[{\"internalType\":\"address\",\"name\":\"from\",\"type\":\"address\"},{\"internalType\":\"uint256\",\"name\":\"amount\",\"type\":\"uint256\"}],\"name\":\"burn\",\"outputs\":[],\"stateMutability\":\"nonpayable\",\"type\":\"function\"},{\"inputs\":[],\"name\":\"decimals\",\"outputs\":[{\"internalType\":\"uint8\",\"name\":\"\",\"type\":\"uint8\"}],\"stateMutability\":\"view\",\"type\":\"function\"},{\"inputs\":[{\"internalType\":\"address\",\"name\":\"spender\",\"type\":\"address\"},{\"internalType\":\"uint256\",\"name\":\"subtractedValue\",\"type\":\"uint256\"}],\"name\":\"decreaseAllowance\",\"outputs\":[{\"internalType\":\"bool\",\"name\":\"\",\"type\":\"bool\"}],\"stateMutability\":\"nonpayable\",\"type\":\"function\"},{\"inputs\":[{\"internalType\":\"bytes32\",\"name\":\"role\",\"type\":\"bytes32\"}],\"name\":\"getRoleAdmin\",\"outputs\":[{\"internalType\":\"bytes32\",\"name\":\"\",\"type\":\"bytes32\"}],\"stateMutability\":\"view\",\"type\":\"function\"},{\"inputs\":[{\"internalType\":\"bytes32\",\"name\":\"role\",\"type\":\"bytes32\"},{\"internalType\":\"address\",\"name\":\"account\",\"type\":\"address\"}],\"name\":\"grantRole\",\"outputs\":[],\"stateMutability\":\"nonpayable\",\"type\":\"function\"},{\"inputs\":[{\"internalType\":\"bytes32\",\"name\":\"role\",\"type\":\"bytes32\"},{\"internalType\":\"address\",\"name\":\"account\",\"type\":\"address\"}],\"name\":\"hasRole\",\"outputs\":[{\"internalType\":\"bool\",\"name\":\"\",\"type\":\"bool\"}],\"stateMutability\":\"view\",\"type\":\"function\"},{\"inputs\":[{\"internalType\":\"address\",\"name\":\"spender\",\"type\":\"address\"},{\"internalType\":\"uint256\",\"name\":\"addedValue\",\"type\":\"uint256\"}],\"name\":\"increaseAllowance\",\"outputs\":[{\"internalType\":\"bool\",\"name\":\"\",\"type\":\"bool\"}],\"stateMutability\":\"nonpayable\",\"type\":\"function\"},{\"inputs\":[{\"internalType\":\"address\",\"name\":\"to\",\"type\":\"address\"},{\"internalType\":\"uint256\",\"name\":\"amount\",\"type\":\"uint256\"}],\"name\":\"mint\",\"outputs\":[],\"stateMutability\":\"nonpayable\",\"type\":\"function\"},{\"inputs\":[],\"name\":\"name\",\"outputs\":[{\"internalType\":\"string\",\"name\":\"\",\"type\":\"string\"}],\"stateMutability\":\"view\",\"type\":\"function\"},{\"inputs\":[{\"internalType\":\"bytes32\",\"name\":\"role\",\"type\":\"bytes32\"},{\"internalType\":\"address\",\"name\":\"account\",\"type\":\"address\"}],\"name\":\"renounceRole\",\"outputs\":[],\"stateMutability\":\"nonpayable\",\"type\":\"function\"},{\"inputs\":[{\"internalType\":\"bytes32\",\"name\":\"role\",\"type\":\"bytes32\"},{\"internalType\":\"address\",\"name\":\"account\",\"type\":\"address\"}],\"name\":\"revokeRole\",\"outputs\":[],\"stateMutability\":\"nonpayable\",\"type\":\"function\"},{\"inputs\":[{\"internalType\":\"bytes4\",\"name\":\"interfaceId\",\"type\":\"bytes4\"}],\"name\":\"supportsInterface\",\"outputs\":[{\"internalType\":\"bool\",\"name\":\"\",\"type\":\"bool\"}],\"stateMutability\":\"view\",\"type\":\"function\"},{\"inputs\":[],\"name\":\"symbol\",\"outputs\":[{\"internalType\":\"string\",\"name\":\"\",\"type\":\"string\"}],\"stateMutability\":\"view\",\"type\":\"function\"},{\"inputs\":[],\"name\":\"totalSupply\",\"outputs\":[{\"internalType\":\"uint256\",\"name\":\"\",\"type\":\"uint256\"}],\"stateMutability\":\"view\",\"type\":\"function\"},{\"inputs\":[{\"internalType\":\"address\",\"name\":\"to\",\"type\":\"address\"},{\"internalType\":\"uint256\",\"name\":\"amount\",\"type\":\"uint256\"}],\"name\":\"transfer\",\"outputs\":[{\"internalType\":\"bool\",\"name\":\"\",\"type\":\"bool\"}],\"stateMutability\":\"nonpayable\",\"type\":\"function\"},{\"inputs\":[{\"internalType\":\"address\",\"name\":\"from\",\"type\":\"address\"},{\"internalType\":\"address\",\"name\":\"to\",\"type\":\"address\"},{\"internalType\":\"uint256\",\"name\":\"amount\",\"type\":\"uint256\"}],\"name\":\"transferFrom\",\"outputs\":[{\"internalType\":\"bool\",\"name\":\"\",\"type\":\"bool\"}],\"stateMutability\":\"nonpayable\",\"type\":\"function\"}]'\n",
    "\n",
    "# construct contract\n",
    "contract = w3.eth.contract(address = contract_address, abi = contract_abi)"
   ]
  },
  {
   "cell_type": "code",
   "execution_count": 4,
   "id": "0a49167c-4bcd-49c5-b780-d191dae8395f",
   "metadata": {},
   "outputs": [
    {
     "data": {
      "text/plain": [
       "[<Function DEFAULT_ADMIN_ROLE()>,\n",
       " <Function MINTER_ROLE()>,\n",
       " <Function allowance(address,address)>,\n",
       " <Function approve(address,uint256)>,\n",
       " <Function balanceOf(address)>,\n",
       " <Function burn(address,uint256)>,\n",
       " <Function decimals()>,\n",
       " <Function decreaseAllowance(address,uint256)>,\n",
       " <Function getRoleAdmin(bytes32)>,\n",
       " <Function grantRole(bytes32,address)>,\n",
       " <Function hasRole(bytes32,address)>,\n",
       " <Function increaseAllowance(address,uint256)>,\n",
       " <Function mint(address,uint256)>,\n",
       " <Function name()>,\n",
       " <Function renounceRole(bytes32,address)>,\n",
       " <Function revokeRole(bytes32,address)>,\n",
       " <Function supportsInterface(bytes4)>,\n",
       " <Function symbol()>,\n",
       " <Function totalSupply()>,\n",
       " <Function transfer(address,uint256)>,\n",
       " <Function transferFrom(address,address,uint256)>]"
      ]
     },
     "execution_count": 4,
     "metadata": {},
     "output_type": "execute_result"
    }
   ],
   "source": [
    "contract.all_functions()"
   ]
  },
  {
   "cell_type": "code",
   "execution_count": 17,
   "id": "be32c128-e922-4072-ba1b-0aeab10c1347",
   "metadata": {},
   "outputs": [
    {
     "data": {
      "text/plain": [
       "100000000000000001000000000"
      ]
     },
     "execution_count": 17,
     "metadata": {},
     "output_type": "execute_result"
    }
   ],
   "source": [
    "contract.caller.balanceOf(acct.address)"
   ]
  },
  {
   "cell_type": "code",
   "execution_count": 61,
   "id": "439712dd-47ae-4827-98c5-1fa01062fbde",
   "metadata": {},
   "outputs": [
    {
     "data": {
      "text/plain": [
       "True"
      ]
     },
     "execution_count": 61,
     "metadata": {},
     "output_type": "execute_result"
    }
   ],
   "source": [
    "MINTER_ROLE=contract.caller.MINTER_ROLE()\n",
    "contract.caller.hasRole(MINTER_ROLE,acct.address)"
   ]
  },
  {
   "cell_type": "code",
   "execution_count": 62,
   "id": "67c0276e-d166-43af-bbaa-b155b25581cb",
   "metadata": {},
   "outputs": [
    {
     "data": {
      "text/plain": [
       "True"
      ]
     },
     "execution_count": 62,
     "metadata": {},
     "output_type": "execute_result"
    }
   ],
   "source": [
    "DEFAULT_ADMIN_ROLE=contract.caller.DEFAULT_ADMIN_ROLE()\n",
    "contract.caller.hasRole(DEFAULT_ADMIN_ROLE,acct.address)"
   ]
  },
  {
   "cell_type": "code",
   "execution_count": 72,
   "id": "9f1f7b49-cec6-48f5-adf3-9864ddf2b3f2",
   "metadata": {},
   "outputs": [
    {
     "data": {
      "text/plain": [
       "b'\\x00\\x00\\x00\\x00\\x00\\x00\\x00\\x00\\x00\\x00\\x00\\x00\\x00\\x00\\x00\\x00\\x00\\x00\\x00\\x00\\x00\\x00\\x00\\x00\\x00\\x00\\x00\\x00\\x00\\x00\\x00\\x00'"
      ]
     },
     "execution_count": 72,
     "metadata": {},
     "output_type": "execute_result"
    }
   ],
   "source": [
    "contract.caller.getRoleAdmin(DEFAULT_ADMIN_ROLE)"
   ]
  },
  {
   "cell_type": "code",
   "execution_count": 71,
   "id": "977065c8-30b7-4fd1-97a5-352e77303e7c",
   "metadata": {},
   "outputs": [
    {
     "data": {
      "text/plain": [
       "b'\\x00\\x00\\x00\\x00\\x00\\x00\\x00\\x00\\x00\\x00\\x00\\x00\\x00\\x00\\x00\\x00\\x00\\x00\\x00\\x00\\x00\\x00\\x00\\x00\\x00\\x00\\x00\\x00\\x00\\x00\\x00\\x00'"
      ]
     },
     "execution_count": 71,
     "metadata": {},
     "output_type": "execute_result"
    }
   ],
   "source": [
    "contract.caller.getRoleAdmin(MINTER_ROLE)"
   ]
  },
  {
   "cell_type": "code",
   "execution_count": null,
   "id": "a7c3dc05-a451-4717-8a82-bc26352d8a0a",
   "metadata": {},
   "outputs": [],
   "source": []
  },
  {
   "cell_type": "code",
   "execution_count": null,
   "id": "bbfbf2cd-4417-40d0-aa2f-f7caac0bd29c",
   "metadata": {},
   "outputs": [],
   "source": []
  },
  {
   "cell_type": "markdown",
   "id": "08825c0d-bdce-4e82-bfd0-9c4860d43ddd",
   "metadata": {},
   "source": [
    "# Sign and send transactions"
   ]
  },
  {
   "cell_type": "code",
   "execution_count": 105,
   "id": "c1575e6c-9ac4-4761-aea0-0b31c43ac147",
   "metadata": {},
   "outputs": [],
   "source": [
    "in1 = DEFAULT_ADMIN_ROLE\n",
    "in2 = '0x536A46C01c78df44e05A31eEb6aaFB85cddE20D5'"
   ]
  },
  {
   "cell_type": "code",
   "execution_count": null,
   "id": "b4ae2437-7a53-468b-a1da-071a55507f2c",
   "metadata": {},
   "outputs": [],
   "source": [
    "# >>> unicorns = w3.eth.contract(address=\"0xfB6916095ca1df60bB79Ce92cE3Ea74c37c5d359\", abi=EIP20_ABI)\n",
    "# contract"
   ]
  },
  {
   "cell_type": "code",
   "execution_count": 106,
   "id": "89b8f138-e813-43a9-b8b0-dd5dfba80191",
   "metadata": {},
   "outputs": [],
   "source": [
    "nonce = w3.eth.get_transaction_count(acct.address)"
   ]
  },
  {
   "cell_type": "code",
   "execution_count": 107,
   "id": "76ab3d27-8006-4cf2-b444-c2b1ab07bcc7",
   "metadata": {},
   "outputs": [],
   "source": [
    "## TODO: estimate gas?\n",
    "\n",
    "# https://web3py.readthedocs.io/en/v5/contracts.html?highlight=send%20transaction#web3.contract.ContractFunction.build_transaction\n",
    "contract_txn=contract.functions.grantRole(in1,in2).build_transaction({\n",
    "# 'chainId': 1,\n",
    "# 'chain':'goerli',\n",
    "'gas': 70000,\n",
    "'maxFeePerGas': w3.toWei('2', 'gwei'),\n",
    "'maxPriorityFeePerGas': w3.toWei('1', 'gwei'),\n",
    "'nonce':w3.eth.get_transaction_count(acct.address)})"
   ]
  },
  {
   "cell_type": "code",
   "execution_count": 114,
   "id": "43309ab7-be50-46e1-85fe-a0cae81f8db3",
   "metadata": {},
   "outputs": [],
   "source": [
    "# contract_txn"
   ]
  },
  {
   "cell_type": "code",
   "execution_count": 115,
   "id": "0381a8ef-ab5e-4bc3-8557-13fcf78ca9c8",
   "metadata": {},
   "outputs": [],
   "source": [
    "# signed_txn = w3.eth.account.sign_transaction(contract_txn, private_key=acct.privateKey)"
   ]
  },
  {
   "cell_type": "code",
   "execution_count": 116,
   "id": "60f82a7a-37fc-4b5e-9772-9c138992071b",
   "metadata": {},
   "outputs": [
    {
     "data": {
      "text/plain": [
       "HexBytes('0x1feefe20fb272c1d03920b67585f520bec83290cb7b79bca7b8e286b634b6896')"
      ]
     },
     "execution_count": 116,
     "metadata": {},
     "output_type": "execute_result"
    }
   ],
   "source": [
    "signed_txn.hash\n",
    "# HexBytes('0x748db062639a45e519dba934fce09c367c92043867409160c9989673439dc817')\n",
    "# signed_txn.rawTransaction\n",
    "# HexBytes('0x02f8b00180843b9aca0084773594008301117094fb6916095ca1df60bb79ce92ce3ea74c37c5d35980b844a9059cbb000000000000000000000000fb6916095ca1df60bb79ce92ce3ea74c37c5d3590000000000000000000000000000000000000000000000000000000000000001c001a0cec4150e52898cf1295cc4020ac0316cbf186071e7cdc5ec44eeb7cdda05afa2a06b0b3a09c7fb0112123c0bef1fd6334853a9dcf3cb5bab3ccd1f5baae926d449')\n",
    "# >>> signed_txn.r\n",
    "# 93522894155654168208483453926995743737629589441154283159505514235904280342434\n",
    "# >>> signed_txn.s\n",
    "# 48417310681110102814014302147799665717176259465062324746227758019974374282313\n",
    "# >>> signed_txn.v\n",
    "# 1"
   ]
  },
  {
   "cell_type": "code",
   "execution_count": 112,
   "id": "61d7093b-d076-41ef-9713-0f965e7b95cc",
   "metadata": {},
   "outputs": [
    {
     "data": {
      "text/plain": [
       "HexBytes('0x1feefe20fb272c1d03920b67585f520bec83290cb7b79bca7b8e286b634b6896')"
      ]
     },
     "execution_count": 112,
     "metadata": {},
     "output_type": "execute_result"
    }
   ],
   "source": [
    "# sending returns the same transaction hash\n",
    "w3.eth.send_raw_transaction(signed_txn.rawTransaction)  "
   ]
  },
  {
   "cell_type": "code",
   "execution_count": 113,
   "id": "5771699d-0c6d-48ac-b0d4-b493408740b2",
   "metadata": {},
   "outputs": [
    {
     "data": {
      "text/plain": [
       "'0x1feefe20fb272c1d03920b67585f520bec83290cb7b79bca7b8e286b634b6896'"
      ]
     },
     "execution_count": 113,
     "metadata": {},
     "output_type": "execute_result"
    }
   ],
   "source": [
    "# # When you run send_raw_transaction, you get the same result as the hash of the transaction:\n",
    "w3.toHex(w3.keccak(signed_txn.rawTransaction))"
   ]
  },
  {
   "cell_type": "code",
   "execution_count": null,
   "id": "3b2ac0dc-f075-44f9-a29f-e37f4e6e5c50",
   "metadata": {},
   "outputs": [],
   "source": []
  },
  {
   "cell_type": "markdown",
   "id": "e2c9eee3-cfcd-412b-a09b-036f804ba6d6",
   "metadata": {},
   "source": [
    "# Swapping with Uniswap"
   ]
  },
  {
   "cell_type": "code",
   "execution_count": null,
   "id": "afa7bf7c-3276-4fdc-a223-8db77c996844",
   "metadata": {},
   "outputs": [],
   "source": []
  },
  {
   "cell_type": "code",
   "execution_count": null,
   "id": "884242e3-34c0-42c9-916c-265101fb2224",
   "metadata": {},
   "outputs": [],
   "source": []
  },
  {
   "cell_type": "code",
   "execution_count": null,
   "id": "9a879b5a-845a-4c4b-a088-445ef598fbd3",
   "metadata": {},
   "outputs": [],
   "source": []
  }
 ],
 "metadata": {
  "kernelspec": {
   "display_name": "Python 3",
   "language": "python",
   "name": "python3"
  },
  "language_info": {
   "codemirror_mode": {
    "name": "ipython",
    "version": 3
   },
   "file_extension": ".py",
   "mimetype": "text/x-python",
   "name": "python",
   "nbconvert_exporter": "python",
   "pygments_lexer": "ipython3",
   "version": "3.8.6"
  }
 },
 "nbformat": 4,
 "nbformat_minor": 5
}
